{
  "contractName": "Contacts",
  "abi": [
    {
      "anonymous": false,
      "inputs": [
        {
          "indexed": true,
          "internalType": "address",
          "name": "sender",
          "type": "address"
        },
        {
          "indexed": false,
          "internalType": "uint256",
          "name": "id",
          "type": "uint256"
        },
        {
          "indexed": false,
          "internalType": "string",
          "name": "firstName",
          "type": "string"
        },
        {
          "indexed": false,
          "internalType": "string",
          "name": "lastName",
          "type": "string"
        },
        {
          "indexed": false,
          "internalType": "string",
          "name": "telephoneNumber",
          "type": "string"
        },
        {
          "indexed": false,
          "internalType": "string",
          "name": "email",
          "type": "string"
        },
        {
          "indexed": false,
          "internalType": "address",
          "name": "account",
          "type": "address"
        }
      ],
      "name": "ContactAdded",
      "type": "event"
    },
    {
      "anonymous": false,
      "inputs": [
        {
          "indexed": true,
          "internalType": "address",
          "name": "sender",
          "type": "address"
        },
        {
          "indexed": false,
          "internalType": "uint256",
          "name": "id",
          "type": "uint256"
        },
        {
          "indexed": false,
          "internalType": "uint256",
          "name": "replacedByID",
          "type": "uint256"
        }
      ],
      "name": "ContactDeleted",
      "type": "event"
    },
    {
      "anonymous": false,
      "inputs": [
        {
          "indexed": true,
          "internalType": "address",
          "name": "sender",
          "type": "address"
        },
        {
          "indexed": false,
          "internalType": "uint256",
          "name": "id",
          "type": "uint256"
        },
        {
          "indexed": false,
          "internalType": "string",
          "name": "firstName",
          "type": "string"
        },
        {
          "indexed": false,
          "internalType": "string",
          "name": "lastName",
          "type": "string"
        },
        {
          "indexed": false,
          "internalType": "string",
          "name": "telephoneNumber",
          "type": "string"
        },
        {
          "indexed": false,
          "internalType": "string",
          "name": "email",
          "type": "string"
        },
        {
          "indexed": false,
          "internalType": "address",
          "name": "account",
          "type": "address"
        }
      ],
      "name": "ContactUpdated",
      "type": "event"
    },
    {
      "inputs": [],
      "name": "getContacts",
      "outputs": [
        {
          "internalType": "uint256",
          "name": "",
          "type": "uint256"
        },
        {
          "components": [
            {
              "internalType": "string",
              "name": "firstName",
              "type": "string"
            },
            {
              "internalType": "string",
              "name": "lastName",
              "type": "string"
            },
            {
              "internalType": "string",
              "name": "telephoneNumber",
              "type": "string"
            },
            {
              "internalType": "string",
              "name": "email",
              "type": "string"
            },
            {
              "internalType": "address",
              "name": "account",
              "type": "address"
            }
          ],
          "internalType": "struct Contacts.Contact[]",
          "name": "",
          "type": "tuple[]"
        }
      ],
      "stateMutability": "view",
      "type": "function",
      "constant": true
    },
    {
      "inputs": [
        {
          "internalType": "string",
          "name": "_firstName",
          "type": "string"
        },
        {
          "internalType": "string",
          "name": "_lastName",
          "type": "string"
        },
        {
          "internalType": "string",
          "name": "_telephoneNumber",
          "type": "string"
        },
        {
          "internalType": "string",
          "name": "_email",
          "type": "string"
        },
        {
          "internalType": "address",
          "name": "_account",
          "type": "address"
        }
      ],
      "name": "addContact",
      "outputs": [],
      "stateMutability": "nonpayable",
      "type": "function"
    },
    {
      "inputs": [
        {
          "internalType": "uint256",
          "name": "_id",
          "type": "uint256"
        },
        {
          "internalType": "string",
          "name": "_firstName",
          "type": "string"
        },
        {
          "internalType": "string",
          "name": "_lastName",
          "type": "string"
        },
        {
          "internalType": "string",
          "name": "_telephoneNumber",
          "type": "string"
        },
        {
          "internalType": "string",
          "name": "_email",
          "type": "string"
        },
        {
          "internalType": "address",
          "name": "_account",
          "type": "address"
        }
      ],
      "name": "updateContact",
      "outputs": [],
      "stateMutability": "nonpayable",
      "type": "function"
    },
    {
      "inputs": [
        {
          "internalType": "uint256",
          "name": "_id",
          "type": "uint256"
        }
      ],
      "name": "deleteContact",
      "outputs": [],
      "stateMutability": "nonpayable",
      "type": "function"
    }
  ],
  "bytecode": "0x608060405234801561001057600080fd5b506119d5806100206000396000f3fe608060405234801561001057600080fd5b506004361061004c5760003560e01c806331a8bbfe146100515780633cf71a3d1461006d578063b9ed6fca14610089578063db920b77146100a5575b600080fd5b61006b60048036038101906100669190611238565b6100c4565b005b61008760048036038101906100829190611120565b6102fc565b005b6100a3600480360381019061009e919061120b565b610576565b005b6100ad610a6e565b6040516100bb92919061152b565b60405180910390f35b60008611801561011257506000803273ffffffffffffffffffffffffffffffffffffffff1673ffffffffffffffffffffffffffffffffffffffff168152602001908152602001600020548611155b610151576040517f08c379a00000000000000000000000000000000000000000000000000000000081526004016101489061150b565b60405180910390fd5b6040518060a001604052808681526020018581526020018481526020018381526020018273ffffffffffffffffffffffffffffffffffffffff16815250600160003273ffffffffffffffffffffffffffffffffffffffff1673ffffffffffffffffffffffffffffffffffffffff168152602001908152602001600020600088815260200190815260200160002060008201518160000190805190602001906101fa929190610ed1565b506020820151816001019080519060200190610217929190610ed1565b506040820151816002019080519060200190610234929190610ed1565b506060820151816003019080519060200190610251929190610ed1565b5060808201518160040160006101000a81548173ffffffffffffffffffffffffffffffffffffffff021916908373ffffffffffffffffffffffffffffffffffffffff1602179055509050503273ffffffffffffffffffffffffffffffffffffffff167fdb641b902b02ea0c8d86cfc5569fefe2c3ccc33757631f81d4d9bf9a2ff5b5968787878787876040516102ec9695949392919061155b565b60405180910390a2505050505050565b6000803273ffffffffffffffffffffffffffffffffffffffff1673ffffffffffffffffffffffffffffffffffffffff168152602001908152602001600020600081548092919061034b9061181e565b91905055506040518060a001604052808681526020018581526020018481526020018381526020018273ffffffffffffffffffffffffffffffffffffffff16815250600160003273ffffffffffffffffffffffffffffffffffffffff1673ffffffffffffffffffffffffffffffffffffffff16815260200190815260200160002060008060003273ffffffffffffffffffffffffffffffffffffffff1673ffffffffffffffffffffffffffffffffffffffff1681526020019081526020016000205481526020019081526020016000206000820151816000019080519060200190610437929190610ed1565b506020820151816001019080519060200190610454929190610ed1565b506040820151816002019080519060200190610471929190610ed1565b50606082015181600301908051906020019061048e929190610ed1565b5060808201518160040160006101000a81548173ffffffffffffffffffffffffffffffffffffffff021916908373ffffffffffffffffffffffffffffffffffffffff1602179055509050503273ffffffffffffffffffffffffffffffffffffffff167f7ce12160dd861ef46fe37519f3860c827fce5ea36dc30ac9bb010b6e847318596000803273ffffffffffffffffffffffffffffffffffffffff1673ffffffffffffffffffffffffffffffffffffffff1681526020019081526020016000205487878787876040516105679695949392919061155b565b60405180910390a25050505050565b6000811180156105c457506000803273ffffffffffffffffffffffffffffffffffffffff1673ffffffffffffffffffffffffffffffffffffffff168152602001908152602001600020548111155b610603576040517f08c379a00000000000000000000000000000000000000000000000000000000081526004016105fa9061150b565b60405180910390fd5b600160003273ffffffffffffffffffffffffffffffffffffffff1673ffffffffffffffffffffffffffffffffffffffff1681526020019081526020016000206000828152602001908152602001600020600080820160006106649190610f57565b6001820160006106749190610f57565b6002820160006106849190610f57565b6003820160006106949190610f57565b6004820160006101000a81549073ffffffffffffffffffffffffffffffffffffffff02191690555050600160003273ffffffffffffffffffffffffffffffffffffffff1673ffffffffffffffffffffffffffffffffffffffff16815260200190815260200160002060008060003273ffffffffffffffffffffffffffffffffffffffff1673ffffffffffffffffffffffffffffffffffffffff168152602001908152602001600020548152602001908152602001600020600160003273ffffffffffffffffffffffffffffffffffffffff1673ffffffffffffffffffffffffffffffffffffffff168152602001908152602001600020600083815260200190815260200160002060008201816000019080546107af906117bb565b6107ba929190610f97565b5060018201816001019080546107cf906117bb565b6107da929190610f97565b5060028201816002019080546107ef906117bb565b6107fa929190610f97565b50600382018160030190805461080f906117bb565b61081a929190610f97565b506004820160009054906101000a900473ffffffffffffffffffffffffffffffffffffffff168160040160006101000a81548173ffffffffffffffffffffffffffffffffffffffff021916908373ffffffffffffffffffffffffffffffffffffffff160217905550905050600160003273ffffffffffffffffffffffffffffffffffffffff1673ffffffffffffffffffffffffffffffffffffffff16815260200190815260200160002060008060003273ffffffffffffffffffffffffffffffffffffffff1673ffffffffffffffffffffffffffffffffffffffff168152602001908152602001600020548152602001908152602001600020600080820160006109249190610f57565b6001820160006109349190610f57565b6002820160006109449190610f57565b6003820160006109549190610f57565b6004820160006101000a81549073ffffffffffffffffffffffffffffffffffffffff021916905550506000803273ffffffffffffffffffffffffffffffffffffffff1673ffffffffffffffffffffffffffffffffffffffff16815260200190815260200160002060008154809291906109cc90611791565b91905055503273ffffffffffffffffffffffffffffffffffffffff167f3c0bb873ef18d1c6e72a29dc57cb5f72366a07b559fb26c9fdb63de489c8d0868260016000803273ffffffffffffffffffffffffffffffffffffffff1673ffffffffffffffffffffffffffffffffffffffff16815260200190815260200160002054610a5591906116bd565b604051610a639291906115d8565b60405180910390a250565b6000606060008060003273ffffffffffffffffffffffffffffffffffffffff1673ffffffffffffffffffffffffffffffffffffffff1681526020019081526020016000205467ffffffffffffffff811115610acc57610acb6118f4565b5b604051908082528060200260200182016040528015610b0557816020015b610af2611024565b815260200190600190039081610aea5790505b50905060005b6000803273ffffffffffffffffffffffffffffffffffffffff1673ffffffffffffffffffffffffffffffffffffffff16815260200190815260200160002054811015610e8757600160003273ffffffffffffffffffffffffffffffffffffffff1673ffffffffffffffffffffffffffffffffffffffff1681526020019081526020016000206000600183610b9f91906116bd565b81526020019081526020016000206040518060a0016040529081600082018054610bc8906117bb565b80601f0160208091040260200160405190810160405280929190818152602001828054610bf4906117bb565b8015610c415780601f10610c1657610100808354040283529160200191610c41565b820191906000526020600020905b815481529060010190602001808311610c2457829003601f168201915b50505050508152602001600182018054610c5a906117bb565b80601f0160208091040260200160405190810160405280929190818152602001828054610c86906117bb565b8015610cd35780601f10610ca857610100808354040283529160200191610cd3565b820191906000526020600020905b815481529060010190602001808311610cb657829003601f168201915b50505050508152602001600282018054610cec906117bb565b80601f0160208091040260200160405190810160405280929190818152602001828054610d18906117bb565b8015610d655780601f10610d3a57610100808354040283529160200191610d65565b820191906000526020600020905b815481529060010190602001808311610d4857829003601f168201915b50505050508152602001600382018054610d7e906117bb565b80601f0160208091040260200160405190810160405280929190818152602001828054610daa906117bb565b8015610df75780601f10610dcc57610100808354040283529160200191610df7565b820191906000526020600020905b815481529060010190602001808311610dda57829003601f168201915b505050505081526020016004820160009054906101000a900473ffffffffffffffffffffffffffffffffffffffff1673ffffffffffffffffffffffffffffffffffffffff1673ffffffffffffffffffffffffffffffffffffffff1681525050828281518110610e6957610e686118c5565b5b60200260200101819052508080610e7f9061181e565b915050610b0b565b506000803273ffffffffffffffffffffffffffffffffffffffff1673ffffffffffffffffffffffffffffffffffffffff168152602001908152602001600020548192509250509091565b828054610edd906117bb565b90600052602060002090601f016020900481019282610eff5760008555610f46565b82601f10610f1857805160ff1916838001178555610f46565b82800160010185558215610f46579182015b82811115610f45578251825591602001919060010190610f2a565b5b509050610f539190611069565b5090565b508054610f63906117bb565b6000825580601f10610f755750610f94565b601f016020900490600052602060002090810190610f939190611069565b5b50565b828054610fa3906117bb565b90600052602060002090601f016020900481019282610fc55760008555611013565b82601f10610fd65780548555611013565b8280016001018555821561101357600052602060002091601f016020900482015b82811115611012578254825591600101919060010190610ff7565b5b5090506110209190611069565b5090565b6040518060a0016040528060608152602001606081526020016060815260200160608152602001600073ffffffffffffffffffffffffffffffffffffffff1681525090565b5b8082111561108257600081600090555060010161106a565b5090565b600061109961109484611626565b611601565b9050828152602081018484840111156110b5576110b4611928565b5b6110c084828561174f565b509392505050565b6000813590506110d781611971565b92915050565b600082601f8301126110f2576110f1611923565b5b8135611102848260208601611086565b91505092915050565b60008135905061111a81611988565b92915050565b600080600080600060a0868803121561113c5761113b611932565b5b600086013567ffffffffffffffff81111561115a5761115961192d565b5b611166888289016110dd565b955050602086013567ffffffffffffffff8111156111875761118661192d565b5b611193888289016110dd565b945050604086013567ffffffffffffffff8111156111b4576111b361192d565b5b6111c0888289016110dd565b935050606086013567ffffffffffffffff8111156111e1576111e061192d565b5b6111ed888289016110dd565b92505060806111fe888289016110c8565b9150509295509295909350565b60006020828403121561122157611220611932565b5b600061122f8482850161110b565b91505092915050565b60008060008060008060c0878903121561125557611254611932565b5b600061126389828a0161110b565b965050602087013567ffffffffffffffff8111156112845761128361192d565b5b61129089828a016110dd565b955050604087013567ffffffffffffffff8111156112b1576112b061192d565b5b6112bd89828a016110dd565b945050606087013567ffffffffffffffff8111156112de576112dd61192d565b5b6112ea89828a016110dd565b935050608087013567ffffffffffffffff81111561130b5761130a61192d565b5b61131789828a016110dd565b92505060a061132889828a016110c8565b9150509295509295509295565b60006113418383611471565b905092915050565b61135281611713565b82525050565b61136181611713565b82525050565b600061137282611667565b61137c818561168a565b93508360208202850161138e85611657565b8060005b858110156113ca57848403895281516113ab8582611335565b94506113b68361167d565b925060208a01995050600181019050611392565b50829750879550505050505092915050565b60006113e782611672565b6113f1818561169b565b935061140181856020860161175e565b61140a81611937565b840191505092915050565b600061142082611672565b61142a81856116ac565b935061143a81856020860161175e565b61144381611937565b840191505092915050565b600061145b600f836116ac565b915061146682611948565b602082019050919050565b600060a083016000830151848203600086015261148e82826113dc565b915050602083015184820360208601526114a882826113dc565b915050604083015184820360408601526114c282826113dc565b915050606083015184820360608601526114dc82826113dc565b91505060808301516114f16080860182611349565b508091505092915050565b61150581611745565b82525050565b600060208201905081810360008301526115248161144e565b9050919050565b600060408201905061154060008301856114fc565b81810360208301526115528184611367565b90509392505050565b600060c08201905061157060008301896114fc565b81810360208301526115828188611415565b905081810360408301526115968187611415565b905081810360608301526115aa8186611415565b905081810360808301526115be8185611415565b90506115cd60a0830184611358565b979650505050505050565b60006040820190506115ed60008301856114fc565b6115fa60208301846114fc565b9392505050565b600061160b61161c565b905061161782826117ed565b919050565b6000604051905090565b600067ffffffffffffffff821115611641576116406118f4565b5b61164a82611937565b9050602081019050919050565b6000819050602082019050919050565b600081519050919050565b600081519050919050565b6000602082019050919050565b600082825260208201905092915050565b600082825260208201905092915050565b600082825260208201905092915050565b60006116c882611745565b91506116d383611745565b9250827fffffffffffffffffffffffffffffffffffffffffffffffffffffffffffffffff0382111561170857611707611867565b5b828201905092915050565b600061171e82611725565b9050919050565b600073ffffffffffffffffffffffffffffffffffffffff82169050919050565b6000819050919050565b82818337600083830152505050565b60005b8381101561177c578082015181840152602081019050611761565b8381111561178b576000848401525b50505050565b600061179c82611745565b915060008214156117b0576117af611867565b5b600182039050919050565b600060028204905060018216806117d357607f821691505b602082108114156117e7576117e6611896565b5b50919050565b6117f682611937565b810181811067ffffffffffffffff82111715611815576118146118f4565b5b80604052505050565b600061182982611745565b91507fffffffffffffffffffffffffffffffffffffffffffffffffffffffffffffffff82141561185c5761185b611867565b5b600182019050919050565b7f4e487b7100000000000000000000000000000000000000000000000000000000600052601160045260246000fd5b7f4e487b7100000000000000000000000000000000000000000000000000000000600052602260045260246000fd5b7f4e487b7100000000000000000000000000000000000000000000000000000000600052603260045260246000fd5b7f4e487b7100000000000000000000000000000000000000000000000000000000600052604160045260246000fd5b600080fd5b600080fd5b600080fd5b600080fd5b6000601f19601f8301169050919050565b7f4944206f7574206f662072616e67650000000000000000000000000000000000600082015250565b61197a81611713565b811461198557600080fd5b50565b61199181611745565b811461199c57600080fd5b5056fea26469706673582212207b0614887be6384192bbafe72ca9c7bcbd402ab3ea4dff5bcda5874bc991fc2764736f6c63430008070033",
  "immutableReferences": {},
  "source": "// SPDX-License-Identifier: MIT\npragma solidity ^0.8.7;\n\n/// @title Contacts\n/// @author Rafael Vera, Karen Pea\n/// @notice Contrato para que los usuarios puedan crear contactos\ncontract Contacts {\n    /// @notice Estructura de un contacto\n    struct Contact {\n        string firstName;       // Nombre del contacto\n        string lastName;        // Apellido del contacto\n        string telephoneNumber; // Nmero de telfono del contacto\n        string email;           // Correo del contacto\n        address account;        // Direccin de blockchain del contacto\n    }\n    \n    /// @notice Evento para contactos agregados\n    /// @param sender - La direccin de quien agrega el contacto\n    /// @param id - El ID del contacto agregado\n    /// @param firstName - El nombre del contacto agregado\n    /// @param lastName - El apellido del contacto agregado\n    /// @param telephoneNumber - El nmero de telfono del contacto agregado\n    /// @param email - El correo del contacto agregado\n    /// @param account - La direccin de blockchain del contacto agregado\n    event ContactAdded(\n        address indexed sender,\n        uint256 id,\n        string firstName,\n        string lastName,\n        string telephoneNumber,\n        string email,\n        address account\n    );\n    \n    /// @notice Evento para contactos actualizados\n    /// @param sender - La direccin de quien edita el contacto\n    /// @param id - El ID del contacto editado\n    /// @param firstName - El nuevo nombre del contacto editado\n    /// @param lastName - El nuevo apellido del contacto editado\n    /// @param telephoneNumber - El nuevo nmero de telfono del contacto editado\n    /// @param email - El nuevo correo del contacto editado\n    /// @param account - La nueva direccin de blockchain del contacto editado\n    event ContactUpdated(\n        address indexed sender,\n        uint256 id,\n        string firstName,\n        string lastName,\n        string telephoneNumber,\n        string email,\n        address account\n    );\n    \n    /// @notice Evento para contactos eliminados\n    /// @param sender - La direccin de quien elimina el contacto\n    /// @param id - El ID del contacto eliminado\n    /// @param replacedByID - El ID del contacto que toma el lugar del eliminado\n    event ContactDeleted(\n        address indexed sender,\n        uint256 id,\n        uint256 replacedByID\n    );\n    \n    /// @dev Variable que almacena el ltimo indice de contacto de cada usuario\n    mapping(address => uint256) lastIndex;\n    \n    /// @dev Variable que almacena los contactos de cada usuario\n    mapping(address => mapping(uint256 => Contact)) contacts;\n    \n    /// @notice Funcin que obtiene la lista de contactos del usuario que llama al contrato\n    /// @return uint256 - La cantidad de contactos del usuario\n    /// @return Contact[] - Arreglo con los contactos del usuario\n    function getContacts() public view returns (uint256, Contact[] memory) {\n        Contact[] memory _contacts = new Contact[](lastIndex[tx.origin]);\n        for(uint256 i = 0; i < lastIndex[tx.origin]; i++) {\n            _contacts[i] = contacts[tx.origin][i+1];\n        }\n        return (lastIndex[tx.origin], _contacts);\n    }\n    \n    /// @notice Funcin que agrega un contacto a la lista del usuario que llama al contrato\n    /// @param _firstName - Nombre del contacto a registrar\n    /// @param _lastName - Apellido del contacto a registrar\n    /// @param _telephoneNumber - Apellido del contacto a registrar\n    /// @param _email - Apellido del contacto a registrar\n    /// @param _account - Apellido del contacto a registrar\n    function addContact(\n        string memory _firstName,\n        string memory _lastName,\n        string memory _telephoneNumber,\n        string memory _email,\n        address _account\n    ) public {\n        lastIndex[tx.origin]++;\n        contacts[tx.origin][lastIndex[tx.origin]] = Contact(\n            _firstName,\n            _lastName,\n            _telephoneNumber,\n            _email,\n            _account\n        );\n        emit ContactAdded(\n            tx.origin,\n            lastIndex[tx.origin],\n            _firstName,\n            _lastName,\n            _telephoneNumber,\n            _email,\n            _account\n        );\n    }\n    \n    /// @notice Funcin que actualiza la informacin de un contacto del usuario que llama al contrato\n    /// @param _firstName - El nuevo nombre del contacto\n    /// @param _lastName - El nuevo apellido del contacto\n    /// @param _telephoneNumber - El nuevo nmero de telfono del contacto\n    /// @param _email - El nuevo correo del contacto\n    /// @param _account - La nueva direccin de blockchain del contacto\n    function updateContact(\n        uint256 _id,\n        string memory _firstName,\n        string memory _lastName,\n        string memory _telephoneNumber,\n        string memory _email,\n        address _account\n    ) public {\n        require(_id > 0 && _id <= lastIndex[tx.origin], \"ID out of range\");\n        contacts[tx.origin][_id] = Contact(\n            _firstName,\n            _lastName,\n            _telephoneNumber,\n            _email,\n            _account\n        );\n        emit ContactUpdated(\n            tx.origin,\n            _id,\n            _firstName,\n            _lastName,\n            _telephoneNumber,\n            _email,\n            _account\n        );\n    }\n    \n    /// @notice Funcin que elimina un contacto dado su ID\n    /// @dev Elimina el contacto y reemplaza el ltimo por el ID del eliminado\n    /// @param _id - El ID del contacto a eliminar\n    function deleteContact(uint256 _id) public {\n        require(_id > 0 && _id <= lastIndex[tx.origin], \"ID out of range\");\n        delete contacts[tx.origin][_id];\n        contacts[tx.origin][_id] = contacts[tx.origin][lastIndex[tx.origin]];\n        delete contacts[tx.origin][lastIndex[tx.origin]];\n        lastIndex[tx.origin]--;\n        emit ContactDeleted(tx.origin, _id, lastIndex[tx.origin] + 1);\n    }\n}",
  "sourcePath": "/home/rafael-vera/blockchain/Proyecto/ContratoContactos/contracts/Contacts.sol",
  "compiler": {
    "name": "solc",
    "version": "0.8.7+commit.e28d00a7.Emscripten.clang"
  },
  "schemaVersion": "3.4.10",
  "updatedAt": "2022-12-08T16:16:39.256Z",
  "networkType": "ethereum",
  "devdoc": {
    "author": "Rafael Vera, Karen Pea",
    "events": {
      "ContactAdded(address,uint256,string,string,string,string,address)": {
        "params": {
          "account": "- La direccin de blockchain del contacto agregado",
          "email": "- El correo del contacto agregado",
          "firstName": "- El nombre del contacto agregado",
          "id": "- El ID del contacto agregado",
          "lastName": "- El apellido del contacto agregado",
          "sender": "- La direccin de quien agrega el contacto",
          "telephoneNumber": "- El nmero de telfono del contacto agregado"
        }
      },
      "ContactDeleted(address,uint256,uint256)": {
        "params": {
          "id": "- El ID del contacto eliminado",
          "replacedByID": "- El ID del contacto que toma el lugar del eliminado",
          "sender": "- La direccin de quien elimina el contacto"
        }
      },
      "ContactUpdated(address,uint256,string,string,string,string,address)": {
        "params": {
          "account": "- La nueva direccin de blockchain del contacto editado",
          "email": "- El nuevo correo del contacto editado",
          "firstName": "- El nuevo nombre del contacto editado",
          "id": "- El ID del contacto editado",
          "lastName": "- El nuevo apellido del contacto editado",
          "sender": "- La direccin de quien edita el contacto",
          "telephoneNumber": "- El nuevo nmero de telfono del contacto editado"
        }
      }
    },
    "kind": "dev",
    "methods": {
      "addContact(string,string,string,string,address)": {
        "params": {
          "_account": "- Apellido del contacto a registrar",
          "_email": "- Apellido del contacto a registrar",
          "_firstName": "- Nombre del contacto a registrar",
          "_lastName": "- Apellido del contacto a registrar",
          "_telephoneNumber": "- Apellido del contacto a registrar"
        }
      },
      "deleteContact(uint256)": {
        "details": "Elimina el contacto y reemplaza el ltimo por el ID del eliminado",
        "params": {
          "_id": "- El ID del contacto a eliminar"
        }
      },
      "getContacts()": {
        "returns": {
          "_0": "uint256 - La cantidad de contactos del usuario",
          "_1": "Contact[] - Arreglo con los contactos del usuario"
        }
      },
      "updateContact(uint256,string,string,string,string,address)": {
        "params": {
          "_account": "- La nueva direccin de blockchain del contacto",
          "_email": "- El nuevo correo del contacto",
          "_firstName": "- El nuevo nombre del contacto",
          "_lastName": "- El nuevo apellido del contacto",
          "_telephoneNumber": "- El nuevo nmero de telfono del contacto"
        }
      }
    },
    "stateVariables": {
      "contacts": {
        "details": "Variable que almacena los contactos de cada usuario"
      },
      "lastIndex": {
        "details": "Variable que almacena el ltimo indice de contacto de cada usuario"
      }
    },
    "title": "Contacts",
    "version": 1
  },
  "userdoc": {
    "events": {
      "ContactAdded(address,uint256,string,string,string,string,address)": {
        "notice": "Evento para contactos agregados"
      },
      "ContactDeleted(address,uint256,uint256)": {
        "notice": "Evento para contactos eliminados"
      },
      "ContactUpdated(address,uint256,string,string,string,string,address)": {
        "notice": "Evento para contactos actualizados"
      }
    },
    "kind": "user",
    "methods": {
      "addContact(string,string,string,string,address)": {
        "notice": "Funcin que agrega un contacto a la lista del usuario que llama al contrato"
      },
      "deleteContact(uint256)": {
        "notice": "Funcin que elimina un contacto dado su ID"
      },
      "getContacts()": {
        "notice": "Funcin que obtiene la lista de contactos del usuario que llama al contrato"
      },
      "updateContact(uint256,string,string,string,string,address)": {
        "notice": "Funcin que actualiza la informacin de un contacto del usuario que llama al contrato"
      }
    },
    "notice": "Contrato para que los usuarios puedan crear contactos",
    "version": 1
  }
}